:020000040000FA
:1000000037210000130101FF37040010130404001E
:100010001305F0009305700097000000E78080064C
:100020002320A4001305F000930570009700000042
:10003000E780C0052320A40013057000930560002D
:1000400097000000E78000052320A400B70200000D
:100050009382020B03A502002320A400B702000034
:100060009382420B03A502002320A400B7020010D4
:10007000938282001305100023A0A2006F000000ED
:100080003305B500678000003305B5406780000088
:10009000930200001383050063080300B382A200EB
:1000A0001303F3FFE31C03FE1385020067800000C7
:1000B0003A010000EFBEADDE0000000000000000CD
:00000001FF
