:020000040000FA
:1000000037210000130101FF370500001305C51259
:1000100097000000E780C005370500001305851430
:1000200097000000E780C004370500001305851520
:100030000325050097000000E780C0071305A00016
:1000400097000000E780C001B70200109382820091
:100050001305100023A0A2006F000000B7020010DB
:100060009382420023A0A20067800000130101FFD9
:10007000232611002324810023229100130405006C
:10008000B7040010938444008302040063880200D4
:1000900023A05400130414006FF01FFF8320C1003D
:1000A00003248100832441001301010167800000C3
:1000B000130101FF23261100232481002322910034
:1000C0002320210113040500B70400109384440089
:1000D000130980001309F9FF1303040093030900B7
:1000E00063880300135343009383F3FF6FF05FFFB4
:1000F0001373F300130EA0006348C301130363FFDF
:10010000130313066F0080001303030323A064008E
:10011000E31209FC8320C1000324810083244100F1
:1001200003290100130101016780000048656C6C20
:100130006F2C20465047412066726F6D20506963D6
:100140006F52563332210A00636F756E74657220E8
:100150003D20307800000000EFBEADDE0000000062
:00000001FF
